:020000040800F2
:10000000B03201205D020008D5120008D7120008A6
:10001000DB120008DF120008E312000800000000F5
:100020000000000000000000000000009D0100082A
:10003000E712000800000000F9010008F9030008B9
:1000400077020008770200087702000877020008AC
:10005000770200087702000877020008770200089C
:10006000770200087702000877020008770200088C
:10007000770200087702000877020008770200087C
:10008000770200087702000877020008770200086C
:10009000770200087702000877020008770200085C
:1000A000770200087702000877020008770200084C
:1000B000770200083B050008770200087702000875
:1000C000770200087702000877020008770200082C
:1000D0007702000859090008770200087702000833
:1000E000770200087702000877020008770200080C
:1000F00077020008770200087702000877020008FC
:1001000077020008770200087702000877020008EB
:1001100077020008770200087702000877020008DB
:1001200077020008770200087702000877020008CB
:1001300077020008770200087702000877020008BB
:1001400077020008770200087702000877020008AB
:10015000770200087702000877020008770200089B
:10016000770200087702000877020008770200088B
:10017000770200087702000877020008770200087B
:100180007702000877020008DFF80CD005F0D2FCF7
:10019000004800474F030008B03201202C4B19687B
:1001A0000868B0E8F04F80F30988BFF36F8F4FF015
:1001B000000080F3118870470000000008480068C4
:1001C000006880F308884FF0000080F3148862B65E
:1001D00061B6BFF34F8FBFF36F8F00DF00BF00BF6B
:1001E00008ED00E0DFF80C00016841F470010160E7
:1001F000704700BF88ED00E0EFF30980BFF36F8F19
:10020000134B1A681EF0100F08BF20ED108A20E96A
:10021000F04F106009B44FF0500080F31188BFF325
:100220004F8FBFF36F8F03F072FE4FF0000080F32B
:10023000118809BC19680868B0E8F04F1EF0100F6B
:1002400008BFB0EC108A80F30988BFF36F8F704746
:1002500068000020EFF305807047000006488047E3
:1002600006480047FEE7FEE7FEE7FEE7FEE7FEE79B
:10027000FEE7FEE7FEE7FEE76725000889010008C4
:100280000024002518E00CB9012000E000200446FD
:1002900022464FF480613C4800F018FD681CC5B24E
:1002A0002A463AA13D4805F057FC3C4800F0F2FBD5
:1002B0004FF4FA7003F0FBFCE5E70025002400266C
:1002C00027E00DB9012000E0002005462A464FF442
:1002D00000712D4800F0FAFC601CC4B2224630A127
:1002E0002E4805F039FC2D4800F0D4FB052C0CDD20
:1002F0005EB901262EA1294805F02EFC274800F002
:10030000C9FB3148006803F0A2FA4FF4FA7003F019
:10031000CEFCD6E71CB504462B48032100237822E7
:10032000CDE9001029A1AFF26D0003F042FA2A488E
:10033000022100237822CDE9001028A1AFF2BF00EE
:1003400003F037FA2848006803F081FA1CBD1CB599
:100350004FF4407000F0C8FFA82000F055F800F0FE
:100360008DFA4FF4964000F0A3FA1F4801210023B4
:100370008022CDE900101DA1AFF2670003F019FA49
:1003800003F04EFF00201CBD001402407461736B2B
:10039000322069733A25640D0A000000DC00002059
:1003A0007461736B312069733A25640D0A00000093
:1003B0007461736B322069732064656C6574656465
:1003C0002121210D0A000000040000206C6564302A
:1003D0005F7461736B000000080000206C6564317D
:1003E0005F7461736B000000000000207374617221
:1003F000745F7461736B000010B504F0EFF90128AD
:1004000001D005F0A6F910BD70B50446042000F037
:10041000BEFF3248047025464FF47A7045430120F0
:100420002F4908804FF0E020006940F002004FF0B3
:10043000E021086108464561006940F0010008615B
:1004400070BD70B5034600224FF0E0267569234E5B
:10045000367803FB06F44FF0E026B16910E04FF068
:10046000E026B06988420BD0884202D20E1A32448C
:1004700002E02E1A0E4432440146A24200D300E0AC
:10048000EDE700BF70BD70B5044604F0A7F9012880
:1004900010D013480088844206D311480088B4FB6A
:1004A000F0F5284603F003FC0D480088B4FBF0F19A
:1004B00000FB11444FF47A7104FB01F0FFF7C1FF18
:1004C00070BD30B50446002504E04FF47A70FFF7A4
:1004D000B8FF6D1CA542F8D330BD00000C00002011
:1004E0000E0000207FB505460C461D208DF800004B
:1004F00001208DF801008DF802008DF80300684698
:1005000000F0F7FE0121022000F0D9FD0020ADF837
:100510000C00ADF806000295A0B2ADF8040001A9E8
:10052000C54801F000F801221146C34801F09CFCC7
:100530000121C14801F080F87FBD10B50121BE48FE
:1005400001F0A9FC01280FD1BC490870BC49087012
:10055000BC480068401CBB4908604EF660218842D8
:1005600002D30020B74908600121B34801F0A4FC80
:1005700010BDB549098821F02001B34A1180B14965
:1005800009686422B1FBF2F188B2B0490988884257
:1005900008D0AE490880AC49098821F020012031FB
:1005A000A94A1180A849098821F04001A64A118072
:1005B000A4490968C822B1FBF2F188B2A4490988AC
:1005C000884208D0A24908809F49098821F040014B
:1005D00040319D4A11809C49098821F080019A4A46
:1005E0001180984909684FF4C872B1FBF2F188B2E2
:1005F00098490988884208D0964908809249098814
:1006000021F080018031904A11808F49098821F0C2
:1006100001018D4A11808B4909684FF47A72B1FB50
:10062000F2F188B28C490988884208D08A4908804A
:100630008549098821F00101491C834A11808249BA
:10064000098821F00201804A11807E4909684FF42F
:10065000FA62B1FBF2F188B280490988884208D079
:100660007E4908807849098821F00201891C764A70
:1006700011807549098821F00401734A118071497C
:10068000096840F6C412B1FBF2F188B274490988D6
:10069000884208D0724908806B49098821F004011A
:1006A000091D694A11806849098821F00801664AD4
:1006B00011806449096840F6B832B1FBF2F188B2A2
:1006C00068490988884208D0664908805E490988D7
:1006D00021F0080108315C4A11805B49098821F04A
:1006E0001001594A11805749096841F28832B1FB1B
:1006F000F2F188B25C490988884208D05A490880DA
:100700005149098821F0100110314F4A11804E499A
:10071000098821F480714C4A11804A49096842F2E3
:100720001072B1FBF2F188B25049098888420ED0AC
:100730004E4908804449098821F4807101F580718F
:10074000414A11804A498978491C494A91703E4979
:10075000098821F400713C4A11803A4909684CF239
:100760005032B1FBF2F188B242490988884209D07F
:10077000404908803449098821F4007101F500716D
:10078000314A118070473A4880783C2806DB0020C7
:100790003749887008464078401C48703448407893
:1007A0003C2806DB00203249487008460078401C8F
:1007B00008702F480078182802DB00202C490870A8
:1007C0002B4800780A2190FBF1F030302A4908705C
:1007D000274800780A2190FBF1F201FB120030302B
:1007E000254948702D208870214840780A2190FBC7
:1007F000F1F030302049C8701D4840780A2190FB44
:10080000F1F201FB120030301B4908712D204871B4
:10081000174880780A2190FBF1F030301649887132
:10082000134880780A2190FBF1F201FB120030306E
:100830001149C871704700000004004010000020FA
:100840001100002014000020340000201A000020B5
:100850001C0000201E00002020000020220000209C
:100860002400002026000020280000202A0000206C
:10087000300000202C0000200E0100201CB50121BA
:10088000202000F0E9FB4FF4E060009001208DF89B
:10089000040000208DF8060002208DF807008DF876
:1008A00005006946014800F091F91CBD00140240A2
:1008B00010B588B004460121102000F011FC012180
:1008C000084600F0C9FB07220921824800F009FA16
:1008D00007220A217F4800F004FA4FF4C060069016
:1008E00002208DF81C0000208DF81E0001208DF8DC
:1008F0001F0002208DF81D0006A9764800F066F959
:1009000002940020ADF814000C20ADF81200002075
:10091000ADF81000ADF80E00ADF80C0002A96E485D
:1009200001F0F4FB01216C4801F078FC012240F257
:100930002551694801F028FD25208DF8040001208B
:100940008DF807008DF8050000208DF8060001A83D
:1009500000F0CFFC08B010BD10B540F225515E4844
:1009600001F04DFD00287AD05B4801F086FC5B4920
:1009700008705B48008810F4004F69D1584800881F
:1009800010F4804F29D0084600780A2821D1544815
:10099000006840F400405249086008460088C0F3EF
:1009A0000D00642801D3002008604C4800784C49B1
:1009B0000988C1F30D014B4A505449480068401C56
:1009C0004749086008460088C0F30D0046490860A2
:1009D0003EE00020424908603AE04148008810F4B7
:1009E000804F35D13D4800780D281BD13C48006828
:1009F00040F480403A49086008460088C0F30D0082
:100A0000642801D3002008603448007834490988FC
:100A1000C1F30D01334A505431480068401C30493D
:100A2000086015E02E480088C0F30D00642802D34A
:100A300000202B4908602948007829490988C1F31A
:100A40000D01284A505426480068401C244908607B
:100A50002348008810F4004F1BD0002410E018E059
:100A60002048015D1C4801F004FC00201D49085588
:100A700000BF4021184801F0ACFC0128F9D1641CEA
:100A8000194800688442EBD30020154908601649D4
:100A9000086010BD70B50546002415E0295D0E48BC
:100AA00001F0E7FB00BF40210B4801F092FC012858
:100AB000F9D10E48007830B901200C4908704FF484
:100AC000FA70FFF7BEFC641C284605F015F8A0423A
:100AD000E4D870BD0000024000100140400000203A
:100AE00038000020170100203C00002041000020B9
:100AF00010B504468C48844208D10121084600F014
:100B000000FB0021012000F0FCFA5EE087488442EF
:100B100008D10121022000F0F4FA0021022000F0A7
:100B2000F0FA52E08248844208D10121042000F00A
:100B3000E8FA0021042000F0E4FA46E07D4884420F
:100B400008D10121082000F0DCFA0021082000F083
:100B5000D8FA3AE07848844208D10121102000F008
:100B6000D0FA0021102000F0CCFA2EE07348844225
:100B700008D10121202000F0C4FA0021202000F03B
:100B8000C0FA22E06E48844208D10121402000F0E2
:100B9000B8FA0021402000F0B4FA16E06948844217
:100BA00008D10121802000F0ACFA0021802000F063
:100BB000A8FA0AE06448844207D10121801500F0B8
:100BC000A0FA0021A01500F09CFA10BDF0B50A466D
:100BD00000210023002400BF3DE0012505FA01F3B8
:100BE000156805EA03049C4234D105684F000326CA
:100BF000BE40B543056015794E00B54006683543E3
:100C000005601579012D02D01579022D16D1856860
:100C10004F000326BE40B543856055794E00B54070
:100C2000866835438560456801268E40B54345603A
:100C3000456896798E40B6B235434560C5684F0029
:100C40000326BE40B543C560D5794E00B540C668A1
:100C50003543C560491C1029BFD3F0BD4FF6FF7165
:100C600001600021017141718171C171704708B546
:100C70004FF480320092009A0A430092009AC261B7
:100C8000C161009AC261C2690092C269009208BD46
:100C90000246002013690B4201D0012000E0002031
:100CA00070470146086980B27047024600205369C8
:100CB0000B4201D0012000E0002070470146486946
:100CC00080B2704701837047418370470AB1018346
:100CD00000E0418370474161704742694A40426188
:100CE0007047F0B5002300244D07ED0E02FA05F31E
:100CF000CE1000F1200555F826504E07F70E0F26AE
:100D0000BE40B543CF1000F1200646F82750CE1064
:100D100000F1200555F8265045EA0304CE1000F1F5
:100D2000200545F82640F0BD0000024000040240C6
:100D300000080240000C0240001002400014024073
:100D400000180240001C024000200240FA480068DF
:100D500040F00100F84908600020F74908310860B8
:100D6000F5480068F5490840F3490860F448091D52
:100D70000860081F006820F48020091F0860002018
:100D8000ED490C31086070470021EB4A921C11704C
:100D900011460870704710B501460022002300205C
:100DA0004A11012A02D1E44C236808E0022A03D147
:100DB000E14C7034236802E0DF4C7434236801F0A6
:100DC0001F02012494401C4201D0012000E00020B9
:100DD00010BD38B5002000900024002500BF312050
:100DE000FFF7D9FF05460098401C00900098B0F529
:100DF000A04F01D0002DF2D03120FFF7CCFF08B179
:100E0000012400E00024204638BD01460020CA4AE3
:100E1000106820F0F80040EAC10010607047C9492E
:100E2000086070470021C44A7032117011700128A7
:100E300002D004280AD104E00121BF4A70321170A7
:100E400005E00521BC4A7032117000E000BF00BF10
:100E50007047BD490860704770B5049C41EA82152F
:100E60000126C6EB530645EA0645054345EA0465F7
:100E7000B14E361D356070BDB249086670478201BB
:100E800042EA0172AC4B84331A607047AD49886600
:100E90007047AC49C864704702460020A64B08332F
:100EA000186820F0EC6042EA01031843A24B0833B3
:100EB00018607047024600209F4B0833186820F0E6
:100EC000784042EA010318439B4B0833186070478F
:100ED00001460020984A0832106820F003000843B9
:100EE0001060704794480830006800F00C007047AC
:100EF00001460020904A0832106820F0F0000843B4
:100F000010607047014600208B4A0832106820F4B8
:100F1000E05008431060704701460020864A0832BE
:100F2000106820F4604040EAC10010607047F0B5DE
:100F30000021002200240225002602237E4F0837CC
:100F40003F6807F00C0121B1042905D0082937D1E9
:100F500005E07E4F076036E07D4F076033E0764F57
:100F60003F1D3F68C7F38056734F3F1D3F6807F032
:100F70003F036EB1764FB7FBF3F7DFF8BCC10CF15E
:100F8000040CDCF800C0CCF3881C07FB0CF40CE06C
:100F90006E4FB7FBF3F7DFF8A0C10CF1040CDCF8DF
:100FA00000C0CCF3881C07FB0CF4634F3F1D3F6867
:100FB000C7F301477F1C7D00B4FBF5F7076002E033
:100FC000624F076000BF00BF5B4F08373F6807F004
:100FD000F00109095F4F7A5C0768D7404760564FB8
:100FE00008373F6807F4E051890A5A4F7A5C47682E
:100FF000D7408760504F08373F6807F46041490B7E
:10100000544F7A5C4768D740C760F0BD002100F4B8
:101010004072B2F5407F0AD1474A0832116821F484
:10102000F8114D4A02401143434A08321160424AC6
:1010300070321268C0F30B031A433F4B70331A60CF
:10104000704741494439086070473F49403908605A
:10105000704742490860704739B1374A30321268E8
:101060000243354B30331A6006E0334A303212689F
:101070008243314B30331A60704739B12E4A3432D3
:10108000126802432C4B34331A6006E02A4A343289
:1010900012688243284B34331A60704739B1264AAC
:1010A000383212680243244B38331A6006E0224A71
:1010B000383212688243204B38331A60704739B196
:1010C0001D4A4032126802431B4B40331A6006E04F
:1010D000194A403212688243174B40331A607047F6
:1010E00039B1154A443212680243134B44331A6033
:1010F00006E0114A4432126882430F4B44331A60AF
:10110000704739B10C4A1032126802430A4B10334F
:101110001A6006E0084A103212688243064B103308
:101120001A607047E1B1044A143212680243024B5C
:1011300014331A6019E0000000380240FFFFF6FE89
:101140001030002400004742800E47420024F40083
:1011500000127A0042000020FFFCFF0F5C014742B2
:101160005B4A126882435A4B1A60704739B1584A39
:10117000121D12680243564B1B1D1A6006E0544AAA
:10118000121D12688243524B1B1D1A60704739B101
:101190004F4A0C32126802434D4B0C331A6006E082
:1011A0004B4A0C3212688243494B0C331A60704729
:1011B00039B1474A103212680243454B10331A6066
:1011C00006E0434A103212688243414B10331A60E2
:1011D000704739B13E4A3C32126802433C4B3C33C3
:1011E0001A6006E03A4A3C3212688243384B3C337C
:1011F0001A60704739B1364A403212680243344BA4
:1012000040331A6006E0324A403212688243304B63
:1012100040331A60704739B12D4A44321268024394
:101220002B4B44331A6006E0294A44321268824349
:10123000274B44331A60704739B1254A4C32126843
:101240000243234B4C331A6006E0214A4C321268A9
:1012500082431F4B4C331A60704739B11C4A5032DD
:10126000126802431A4B50331A6006E0184A503293
:1012700012688243164B50331A60704739B1144AD2
:10128000D21F12780243124BDB1F1A7006E0104A7D
:10129000D21F127882430E4BDB1F1A7070470C4826
:1012A0006030006840F08070094960310860704724
:1012B00001460020064A083A12680A4201D001207D
:1012C00000E0002070470249891F08707047000045
:1012D00014380240704700BFFEE700BFFEE700BFC2
:1012E000FEE700BFFEE7704733490143334A116010
:1012F000704770B5002100230F22C47824B32F4C0F
:10130000246804F4E064C4F5E064C4F30721C1F187
:101310000404E3B20A4144789C40E1B2847814406A
:1013200021430C07210E264C05786155047804F002
:101330001F050124AC4005786D114FF0E02606EB47
:101340008505C5F8004109E0047804F01F04012573
:10135000A5401C4C0678761144F8265070BD1A4AF8
:101360000A400243154B1B1F1A60704739B1134ADC
:10137000121D12680243114B1B1D1A6006E00F4A32
:10138000121D126882430D4B1B1D1A607047042802
:1013900008D14FF0E021096941F004014FF0E0224B
:1013A000116107E04FF0E021096921F004014FF0DD
:1013B000E0221161704700000000FA050CED00E02A
:1013C00000E400E080E100E080FFFF1F10B504466C
:1013D000FE48844208D101210846FFF7E9FE0021BA
:1013E0000120FFF7E5FE9DE0B4F1804F08D1012117
:1013F0000846FFF7CCFE00210120FFF7C8FE91E070
:10140000F348844208D101210220FFF7C0FE0021E9
:101410000220FFF7BCFE85E0EE48844208D101219E
:101420000420FFF7B4FE00210420FFF7B0FE79E0AE
:10143000E948844208D101210820FFF7A8FE0021D5
:101440000820FFF7A4FE6DE0E448844208D10121A2
:101450001020FFF79CFE00211020FFF798FE61E0AE
:10146000DF48844208D101212020FFF790FE0021AF
:101470002020FFF78CFE55E0DA48844208D1012194
:101480000220FFF795FE00210220FFF791FE49E0C0
:10149000D548844209D101210804FFF789FE0021C3
:1014A0004FF48030FFF784FE3CE0D048844209D1FD
:1014B00001214804FFF77CFE00214FF40030FFF7C4
:1014C00077FE2FE0CA48844209D101218804FFF742
:1014D0006FFE00214FF48020FFF76AFE22E0C5482E
:1014E000844208D101214020FFF751FE0021402015
:1014F000FFF74DFE16E0C048844208D1012180204C
:10150000FFF745FE00218020FFF741FE0AE0BB48BF
:10151000844207D101218015FFF739FE0021A01573
:10152000FFF735FE10BD00220288A84B98420ED06E
:10153000AC4B98420BD0B0F1804F08D0A44B9842EE
:1015400005D0A44B984202D0A34B984204D14FF649
:101550008F731A404B881A43A04B984207D0A04B78
:10156000984204D04FF6FF431A400B891A43028079
:101570004B68C3620B880385944B984202D0994B09
:10158000984201D18B7A03860123838270474FF002
:10159000FF314160002101800181418081727047EB
:1015A0000185828270470A46002101884FF68F73B9
:1015B000194011430180704741627047C162704712
:1015C0000146486A70470146088D704721B102887C
:1015D00042F00202028004E002884FF6FD731A40D6
:1015E0000280704721B1028842F00402028004E0C8
:1015F00002884FF6FB731A400280704721B10288BF
:1016000042F08002028004E002884FF67F731A40A5
:101610000280704702884FF6F7731A4002800288F2
:101620000A430280704702884FF6FF431A40028047
:1016300002880A430280704721B1028842F0010209
:10164000028004E002884FF6FE731A400280704761
:1016500070B5002400220023058C4FF6FE7635403D
:101660000584028C8388048B4FF68F752C40B51E41
:101670002C400D882C43751E2A408D892A434D88A5
:101680002A43524DA84202D0564DA84213D14FF6DC
:10169000F7752A40CD892A434FF6FB752A408D887D
:1016A0002A434FF6FF652B404FF6FF552B400D8A1E
:1016B0002B434D8A2B43838004838D6845630284CA
:1016C00070BD70B5002400220023058C4FF6EF7624
:1016D00035400584028C8388048B48F6FF752C40C6
:1016E0004FF6FF452C400D884FF6FF7606EA05259C
:1016F0002C434FF6DF752A408D8906EA05152A43EB
:101700004D8806EA05152A43304DA84202D0354DD2
:10171000A8421DD14FF67F752A40CD894FF6FF763E
:1017200006EA05152A434FF6BF752A408D8806EA5A
:1017300005152A434FF6FF352B404FF2FF752B401E
:101740000D8A06EA85052B434D8A06EA85052B435B
:10175000838004838D688563028470BD70B5002426
:1017600000220023058C4FF6FF6635400584028C6D
:101770008388848B4FF68F752C404FF6FC752C4078
:101780000D882C434FF6FF552A408D894FF6FF7682
:1017900006EA05252A434D8806EA05252A430B4D0E
:1017A000A84202D00F4DA84238D14FF2FF752A400F
:1017B000CD894FF6FF7606EA05252A434FF6FF3519
:1017C0002A408D8806EA05252A4319E000000140D9
:1017D0000004004000080040000C004000100040E1
:1017E000001400400004014000400140004401405A
:1017F0000048014000180040001C0040002000404C
:101800004EF6FF752B404DF6FF752B400D8A06EA0C
:1018100005152B434D8A06EA05152B4383808483E7
:101820008D68C563028470BD70B50022002300245A
:10183000058C4EF6FF7635400584038C8488828BB8
:1018400048F6FF752A404FF6FF452A400D884FF6AF
:10185000FF7606EA05252A434DF6FF752B408D8954
:1018600006EA05352B434D8806EA05352B43FE4D28
:10187000A84202D0FD4DA84208D14BF6FF752C407E
:101880000D8A4FF6FF7606EA85152C438480828305
:101890008D680564038470BD0021018041808180D2
:1018A00081608181C18101824182704770B50346A8
:1018B000002000241846183001258D40ACB21D8C44
:1018C000A5431D8409B108290AD100EB6100056810
:1018D0004FF68F76354005600568154305600FE0CB
:1018E0000D1FC5F34E052844056848F6FF763540C0
:1018F000056005684FF6FF7606EA02263543056067
:1019000070BD4163704781637047C1637047016474
:1019100070470A460021018B4FF68F73194011431F
:10192000018370470A460021018B48F6FF73194076
:101930004FF6FF7303EA02231943018370470A46F7
:101940000021818B4FF68F731940114381837047BB
:101950000A460021818B48F6FF7319404FF6FF734A
:1019600003EA02231943818370470A460021018B51
:101970004FF6F77319401143018370470A4600215F
:10198000018B4FF2FF7319404FF6FF7303EA0223F6
:101990001943018370470A460021818B4FF6F77384
:1019A00019401143818370470A460021818B4FF211
:1019B000FF7319404FF6FF7303EA02231943818333
:1019C00070470A460021018B4FF6FB731940114303
:1019D000018370470A460021018B4FF6FF331940FF
:1019E0004FF6FF7303EA02231943018370470A4647
:1019F0000021818B4FF6FB7319401143818370479F
:101A00000A460021818B4FF6FF3319404FF6FF73D2
:101A100003EA02231943818370470A460021018BA0
:101A20004FF67F7319401143018370470A46002126
:101A3000018BC1F30E014FF6FF7303EA0223194332
:101A4000018370470A460021818B4FF67F7319404E
:101A50001143818370470A460021818BC1F30E0137
:101A60004FF6FF7303EA02231943818370470A4646
:101A70000021018C4FF6FD7319401143018470471A
:101A80000A460021018C4FF6F77319401143018477
:101A900070470A460021018C4FF6DF7319404FF65C
:101AA000FF7303EA02131943018470470A460021B9
:101AB000018C4FF67F7319404FF6FF7303EA021350
:101AC0001943018470470A460021018C4FF6FF53E9
:101AD00019404FF6FF7303EA02231943018470474C
:101AE0000A460021018C4FF2FF7319404FF6FF7335
:101AF00003EA02231943018470470A460021018C3E
:101B00004DF6FF7319404FF6FF7303EA0233194392
:101B10000184704730B5002301248C40A3B2048CAB
:101B20009C430484048C02FA01F5ADB22C43048476
:101B300030BD30B5002304248C40A3B2048C9C43F8
:101B40000484048C02FA01F5ADB22C43048430BD48
:101B5000828B4FF2FF331A408283828B4FF6FF73E2
:101B600003EA01231A4382837047F0B50C461546F9
:101B7000002100220026078C4EF6FF7C07EA0C07A6
:101B80000784818B028C4FF6FF7707EA043640F614
:101B9000FF4739404FF6FF7707EA052739434FF6ED
:101BA000FF7707EA0337394345F6FF773A4046F4B3
:101BB00080573A4381830284F0BD828B4FF6F373E2
:101BC0001A408283828B0A4382837047F0B50C46A9
:101BD0001546002100220026078C4FF6FF6C07EA0D
:101BE0000C070784818B028C4FF6FF7707EA0426E7
:101BF0004FF60C7739404FF6FF7707EA03172F436C
:101C000039434FF2FF573A4046F480773A43818395
:101C10000284F0BD028B4FF2FF331A400283028B25
:101C20004FF6FF7303EA01231A4302837047F0B5AE
:101C30000C461546002100220026078C4FF6EF7C4B
:101C400007EA0C070784018B028C4FF6FF7707EA3F
:101C5000041640F6FF4739404FF6FF7707EA03378F
:101C600039434FF6FF7703E00000014000040140D4
:101C700007EA052739434FF65F773A4046F01007E9
:101C80003A4301830284F0BD028B4FF6F3731A408E
:101C90000283028B0A4302837047F0B50C46154657
:101CA00000210022068C4FF6FE773E400684018B11
:101CB000028C4FF60C7631407E1C06EA03162E434A
:101CC00031434FF6F576324044F00106324301834A
:101CD0000284F0BD70B505460C46208850B92389B2
:101CE000A28861882846FFF7D8FFE1882846FFF7D9
:101CF000CBFF25E0208804280AD12389A2886188A7
:101D00002846FFF794FFE1882846FFF783FF17E096
:101D1000208808280AD12389A28861882846FFF7ED
:101D200055FFE1882846FFF748FF09E02389A2888C
:101D300061882846FFF719FFE1882846FFF708FF6A
:101D400070BD002101804180012181800021C1807E
:101D5000018170472DE9F04105460C460026012718
:101D6000608808B9022600E00026A088012801D179
:101D7000022700E001272088A0B92389A288618872
:101D80002846FFF78AFFE1882846FFF77DFF238971
:101D90003A4631462846FFF74AFFE1882846FFF7D2
:101DA00039FF13E02389A28861882846FFF73FFFA7
:101DB000E1882846FFF72EFF23893A463146284618
:101DC000FFF76BFFE1882846FFF75EFFBDE8F08173
:101DD0000146486B70470146886B70470146C86BE7
:101DE00070470146086C70470A884B881A438B88F5
:101DF0001A43CB881A430B891A434B891A438B89A0
:101E00001A43A0F84420704700210180418081805E
:101E1000C180018141818181704731B1B0F8442096
:101E200042F40042A0F8442005E0B0F84420C2F398
:101E30000E02A0F84420704721B1828842F00402CB
:101E4000828004E082884FF6FB731A4082807047DC
:101E500021B1828842F00102828004E082884FF63C
:101E6000FE731A40828070471AB183890B438381C5
:101E700002E083898B4383817047818270470246E9
:101E80000020138A0B4201D0012000E0002070479F
:101E9000CA430282704730B5024600200023002466
:101EA000158A05EA0103958905EA010413B10CB10D
:101EB000012000E0002030BDCA430282704741EAA1
:101EC0000203A0F8483070471AB183890B4383811D
:101ED00002E083898B438381704721B1828842F07D
:101EE0000802828004E082884FF6F7731A408280ED
:101EF000704701894FF6F8721140018170470A4618
:101F0000002101894FF68F731940114301817047F9
:101F100030B504460D4629462046FFF7F0FF2089DC
:101F200040F00700208130BD2DE9F04104460D4608
:101F300016461F46602D06D13B46012231462046FB
:101F4000FFF775FE05E03B46012231462046FFF7CC
:101F5000A4FE29462046FFF7D2FF208940F0070063
:101F60002081BDE8F08130B50C4600210189C9B25D
:101F70004FF6FF7505EA03251543254329430181E3
:101F800030BD2DE9F04105460E461746984600241F
:101F900043463A4631462846FFF7E5FF2C894FF67F
:101FA000F870044044F007044FF68F70044044F08A
:101FB00070042C81BDE8F081F0B504460D4616464C
:101FC0001F463B46324629462046FFF7CCFF208974
:101FD00040F480402081F0BD82884FF68F731A4014
:101FE000828082880A438280704702894FF6F873A4
:101FF0001A40028102890A430281704702894FF622
:102000007F731A40028102890A4302817047F0B54A
:102010000C4615461E460021002200230189028B32
:10202000038C4FF6F877394021434FF6FC473A408E
:1020300040F201173A434FF6DD773B404FF6FF770A
:1020400007EA06172F433B43018102830384F0BD57
:1020500021B1828842F08002828004E082884FF6BB
:102060007F731A4082807047A0F8501070470000BC
:1020700010B50446F748844208D101211020FFF72B
:1020800097F800211020FFF793F83EE0F2488442D1
:1020900009D101214804FFF77AF800214FF40030FC
:1020A000FFF775F831E0ED48844209D10121880439
:1020B000FFF76DF800214FF48020FFF768F824E067
:1020C000E748844209D10121C804FFF760F80021E4
:1020D0004FF40020FFF75BF817E0E248844209D193
:1020E00001210805FFF753F800214FF48010FFF796
:1020F0004EF80AE0DC48844207D101212020FFF796
:1021000057F800212020FFF753F810BD2DE9FF47B5
:1021100005460E460024A14600BFA046B08900B186
:1021200000BF2C8A24F44054F08804432C82AC89EC
:1021300041F20C608443B0883189084371890843B7
:102140000443AC81AC8A24F44074B0890443AC826B
:102150006846FEF7ECFEBF48854202D0C248854281
:1021600002D1DDF80C9001E0DDF80890A88910F4A8
:10217000004F08D009EBC90000EB09103168490095
:10218000B0FBF1F707E009EBC90000EB091031687B
:102190008900B0FBF1F76420B7FBF0F004012009DF
:1021A000642101FB1078A88910F4004F08D0322078
:1021B00000EBC800B0FBF1F000F00700044308E0BA
:1021C000322000EB08106421B0FBF1F000F00F00AA
:1021D00004432C81BDE8FF874FF4165101600021B4
:1021E0008180C18001810C21418100218181704762
:1021F00010B502460020108A20F470600B884C88CD
:1022000023438C882343CC8823431843108210BD7A
:102210000021018041808180C180704721B1828985
:1022200042F40052828104E082894DF6FF731A4025
:1022300082817047028B02F47F420283028B0A4341
:102240000283704721B1828942F40042828103E017
:102250008289C2F30E028281704721B1828A42F4E0
:102260000062828204E0828A4FF2FF731A40828207
:102270007047C1F308028280704701468888C0F326
:1022800008007047028A4FF6F0731A400282028AF1
:102290000A430282704721B1828942F002028281A0
:1022A00004E082894FF6FD731A408281704782896B
:1022B0004FF2FF731A40828182890A4382817047FC
:1022C000028A4FF6DF731A400282028A0A430282B0
:1022D000704721B1028A42F48042028204E0028AFD
:1022E0004BF6FF731A4002827047818941F0010169
:1022F0008181704721B1828A42F00802828204E023
:10230000828A4FF6F7731A4082827047028BD2B2EC
:102310000283028B42EA01220283704721B1828A42
:1023200042F02002828204E0828A4FF6DF731A4074
:102330008282704721B1828A42F01002828204E0D8
:10234000828A4FF6EF731A4082827047828A4FF674
:10235000FB731A408282828A0A438282704721B1CB
:10236000828A42F00202828204E0828A4FF6FD7382
:102370001A40828270471AB1838A0B43838202E03B
:10238000838A8B4383827047F0B50346002400267E
:1023900000250020A1F510676A3F00D100BF184654
:1023A000C1F3421401F01F06012707FA06F5012CBC
:1023B00001D10C3004E0022C01D1103000E01430C7
:1023C0001AB107682F43076002E00768AF43076050
:1023D000F0BD02460020B1F5007F00D100BF138898
:1023E0000B4201D0012000E00020704701F4007290
:1023F000B2F5007F00D100BFCA430280704770B5BC
:1024000002460024002300250020A1F510666A3E44
:1024100000D100BFC1F3421501F01F03012606FAE7
:1024200003F3012D02D19689334006E0022D02D13B
:10243000168A334001E0968A33400C12012606FAD0
:1024400004F41688344013B10CB1012000E00020E0
:1024500070BD0000001001400044004000480040F2
:10246000004C0040005000400014014010B5002214
:102470000023A1F510646A3C00D100BF0A120124B8
:102480009440A3B2DC43048010BD00000CB50020D2
:10249000019000907548006840F4803073490860EE
:1024A00000BF7248006800F4003000900198401CA2
:1024B0000190009818B90198B0F5A04FF1D16B4880
:1024C000006810F4003F02D00120009001E00020DD
:1024D00000900098012845D164484030006840F0E1
:1024E00080506249403108606148006840F44040D3
:1024F0005F4908605D48083000685C490831086041
:102500000846006840F4004008600846006840F44F
:10251000A05008605748091F0860081F006840F075
:102520008070091F086000BF5048006810F0007FED
:10253000FAD040F20570504908604C4808300068F5
:1025400020F003004949083108600846006840F05F
:102550000200086000BF45480830006800F00C0029
:102560000828F8D10CBD10B54448006840F470004C
:10257000424908603D48006840F001003B4908605E
:1025800000203A4908310860384800683C49084052
:10259000364908603B48091D0860081F006820F4A0
:1025A0008020091F0860002030490C310860FFF7C7
:1025B0006DFF4FF0006031498039086010BD70B583
:1025C00000200022022300240221284D08352D6816
:1025D00005F00C0020B1042806D0082834D107E00B
:1025E000294D2A4E356033E0294D284E35602FE0C5
:1025F0001E4D2D1D2D68C5F380541C4D2D1D2D68BD
:1026000005F03F0154B1224DB5FBF1F5174E361DD3
:102610003668C6F3881605FB06F209E01A4DB5FBCD
:10262000F1F5124E361D3668C6F3881605FB06F224
:102630000E4D2D1D2D68C5F301456D1C6B00B2FBC1
:10264000F3F5124E356003E00F4D104E356000BFBC
:1026500000BF064D08352D68C5F303150D4E705D9E
:102660000A4D2D68C540094E356070BD00380240E6
:102670000070004008544007003C024088ED00E034
:10268000FFFFF6FE103000240024F4005400002068
:1026900000127A005800002000F1080141604FF05C
:1026A000FF31816000F10801C1600161002101601A
:1026B000704700210161704742684A6093688B60EF
:1026C000936859609160086103685B1C0360704700
:1026D00010B502460B685C1C01D1106907E002F1DD
:1026E000080000E04068446824689C42FAD94468C5
:1026F0004C604C68A160886041600A611468641C89
:10270000146010BD01460A69D1E901309860D1E931
:10271000010358605068884201D1886850600020E9
:1027200008611068401E10601068704770B505465B
:102730000E462C4654B900BF502080F31188BFF3D9
:102740004F8FBFF36F8F00BF00BFFEE702F0BDFFEA
:10275000D4E90F12206801FB020060600020A06332
:102760002068A060E06B401E226C216800FB021014
:10277000E060FF2084F8440084F845009EB9206999
:1027800008B9012000E00020A8B904F1100001F010
:1027900010FF80B14FF08050F7490860BFF34F8FB2
:1027A000BFF36F8F07E004F11000FFF775FF04F12E
:1027B0002400FFF771FF02F0B0FF012070BD2DE98A
:1027C000F04106460D4617469846069C0DB9246012
:1027D00000E02760E663256401212046FFF7A6FF9D
:1027E00084F84C80BDE8F0812DE9F84305460E469B
:1027F00090460DB1012000E0002050B900BF5020EC
:1028000080F31188BFF34F8FBFF36F8F00BF00BFFE
:10281000FEE70EB9002701E005FB06F707F15000BF
:1028200003F059F8044644B104F1500943464A46BE
:10283000314628460094FFF7C2FF2046BDE8F883E2
:1028400070B5044602F041FF94F9455010E0606A0B
:1028500008B9012000E0002038B904F1240001F09B
:10286000A8FE18B101F0A8FF00E003E0681E45B221
:10287000002DECDC00BFFF2084F8450002F04DFF86
:1028800002F023FF94F9445010E0206908B90120B8
:1028900000E0002048B904F1100001F08AFE08B100
:1028A00001F08AFF681E45B200E001E0002DECDC7B
:1028B00000BFFF2084F8440002F02FFF70BD70B508
:1028C000054602F002FFA86BE96B884201D10124A2
:1028D00000E0002402F021FF204670BD2DE9F04108
:1028E00004460F4615464FF00008A66B206C40B911
:1028F000206860BB606801F0DAFF804600206060FD
:1029000025E07DB93946226CA06803F0D1F8216C2E
:10291000A0680844A060D4E90110884217D3206859
:10292000A06014E03946226CE06803F0C1F8216C25
:10293000E068401AE0602168E068884203D2216CB8
:102940006068401AE060022D01D106B1761E701C4D
:10295000A0634046BDE8F0812DE9FF4383B0064601
:1029600088461D464FF00009344654B900BF502038
:1029700080F31188BFF34F8FBFF36F8F00BF00BF8D
:10298000FEE7B8F1000F01D1206C08B9012000E08A
:10299000002050B900BF502080F31188BFF34F8F43
:1029A000BFF36F8F00BF00BFFEE7022D02D1E06BC7
:1029B000012801D1012000E0002050B900BF5020C3
:1029C00080F31188BFF34F8FBFF36F8F00BF00BF3D
:1029D000FEE701F003FF08B9059808B9012000E0FF
:1029E000002050B900BF502080F31188BFF34F8FF3
:1029F000BFF36F8F00BF00BFFEE700BF02F065FEB0
:102A0000A06BE16B884201D3022D28D12A464146B2
:102A10002046FFF763FF0746606A08B9012000E01F
:102A2000002068B904F1240001F0C3FD88B14FF023
:102A3000805051490860BFF34F8FBFF36F8F08E09C
:102A40003FB14FF080504C490860BFF34F8FBFF348
:102A50006F8F02F062FE012007B0BDE8F083059899
:102A600018B902F05AFE0020F6E7B9F1000F04D1C0
:102A700001A801F058FE4FF0010902F04EFE01F0EE
:102A8000ACF802F022FE94F94400401C01D184F815
:102A9000440094F94500401C01D184F8450002F03F
:102AA0003CFE05A901A801F045FEF0B92046FFF75C
:102AB00006FFA0B104F11000059901F010FD2046B9
:102AC000FFF7BEFE00F0DBFF002897D14FF08050EB
:102AD00029490860BFF34F8FBFF36F8F8EE7204601
:102AE000FFF7AEFE00F0CBFF88E72046FFF7A8FE19
:102AF00000F0C5FF0020AFE710B504464CB1002040
:102B000060602060E06000231A4619462046FFF707
:102B100023FF10BD2DE9F04104460126002722467F
:102B200000210120FFF760FE05462846FFF7E4FF7D
:102B30002846BDE8F08170B505462C4654B900BF63
:102B4000502080F31188BFF34F8FBFF36F8F00BF0A
:102B500000BFFEE701F03FFE616888420ED1E068E9
:102B6000401EE060E06828B900231A461946204656
:102B7000FFF7F2FE012602E004ED00E000263046F9
:102B800070BD01464A6A22B10A6B1268C2F10500A3
:102B900000E00020704770B5054602F096FDA86B76
:102BA00008B9012400E0002402F0B7FD204670BD02
:102BB0002DE9F34182B005464FF000082C4600266F
:102BC00054B900BF502080F31188BFF34F8FBFF37B
:102BD0006F8F00BF00BFFEE7206C08B9012000E046
:102BE000002050B900BF502080F31188BFF34F8FF1
:102BF000BFF36F8F00BF00BFFEE701F0EFFD08B924
:102C0000039808B9012000E0002050B900BF50200F
:102C100080F31188BFF34F8FBFF36F8F00BF00BFEA
:102C2000FEE700BF02F051FDA76BFFB1781EA06365
:102C3000206810B901F018FF6060206908B9012010
:102C400000E0002060B904F1100001F0B2FC38B1DE
:102C50004FF08050F7490860BFF34F8FBFF36F8F7D
:102C600002F05BFD012004B0BDE8F081039898B943
:102C70000EB9012000E0002050B900BF502080F3C1
:102C80001188BFF34F8FBFF36F8F00BF00BFFEE708
:102C900002F043FD0020E6E7B8F1000F04D16846DA
:102CA00001F041FD4FF0010802F037FD00F095FF03
:102CB00002F00BFD94F94400401C01D184F844005B
:102CC00094F94500401C01D184F8450002F025FD2F
:102CD00003A9684601F02EFD40BB2046FFF75BFFCD
:102CE000F0B1206838B902F0F0FC606801F082FDB4
:102CF000064602F012FD04F12400039901F0EFFBF7
:102D00002046FFF79DFD00F0BAFE00288AD14FF063
:102D10008050C8490860BFF34F8FBFF36F8F81E7C2
:102D20002046FFF78DFD00F0AAFE7BE72046FFF767
:102D300087FD00F0A4FE2046FFF72DFF0028EED00F
:102D40005EB102F0C2FC2046FFF71BFF0746394682
:102D5000606801F00AFE02F0E0FC002083E72DE944
:102D6000F04106460F46344654B900BF502080F368
:102D70001188BFF34F8FBFF36F8F00BF00BFFEE717
:102D800001F029FD6168884204D1E068401CE060E0
:102D9000012508E039462046FFF70AFF054615B130
:102DA000E068401CE0602846BDE8F08170B505464B
:102DB0000E460DB1012000E0002050B900BF5020A8
:102DC00080F31188BFF34F8FBFF36F8F00BF00BF39
:102DD000FEE7AE4201D8012000E0002050B900BF5C
:102DE000502080F31188BFF34F8FBFF36F8F00BF68
:102DF00000BFFEE7022200212846FFF7F5FC04464B
:102E000004B1A663204670BD2DE9F05F07468A46EF
:102E100090461E463C4654B900BF502080F31188AE
:102E2000BFF34F8FBFF36F8F00BF00BFFEE7BAF154
:102E3000000F01D1206C08B9012000E0002050B93A
:102E400000BF502080F31188BFF34F8FBFF36F8F07
:102E500000BF00BFFEE7022E02D1E06B012801D1C6
:102E6000012000E0002050B900BF502080F31188FD
:102E7000BFF34F8FBFF36F8F00BF00BFFEE702F0BD
:102E800080FC00BF5021EFF3118081F31188BFF364
:102E90004F8FBFF36F8F00BF0546A06BE16B884279
:102EA00001D3022E23D194F945B032465146204633
:102EB000FFF714FD1BF1010011D1606A08B9012070
:102EC00000E0002080B904F1240001F072FB58B149
:102ED000B8F1000F08D00120C8F8000004E00BF1A1
:102EE000010040B284F845004FF0010901E04FF0C5
:102EF000000900BF85F3118800BF4846BDE8F09F78
:102F00002DE9F04706460F46344654B900BF50201D
:102F100080F31188BFF34F8FBFF36F8F00BF00BFE7
:102F2000FEE7206C08B9012000E0002050B900BF86
:102F3000502080F31188BFF34F8FBFF36F8F00BF16
:102F400000BFFEE7206808B9606808B9012000E00A
:102F5000002050B900BF502080F31188BFF34F8F7D
:102F6000BFF36F8F00BF00BFFEE702F00AFC00BF97
:102F70005021EFF3118081F31188BFF34F8FBFF31E
:102F80006F8F00BF0546D4F83890E06B48451ED9D6
:102F900094F945A009F10100A0631AF101000ED1D6
:102FA000606A08B9012000E0002068B904F124003B
:102FB00001F0FFFA40B13FB10120386004E00AF1AE
:102FC000010040B284F845004FF0010801E04FF0E5
:102FD000000800BF85F3118800BF4046BDE8F087B8
:102FE00070B504460D46206C70B1216CE068084451
:102FF000E0606168E068884201D32068E0602846AC
:10300000226CE16802F054FD70BD2DE9F74183B0F8
:1030100005460E464FF000082C466CB900BF502004
:1030200080F31188BFF34F8FBFF36F8F00BF00BFD6
:10303000FEE7000004ED00E00EB9206C08B90120A5
:1030400000E0002050B900BF502080F31188BFF38A
:103050004F8FBFF36F8F00BF00BFFEE701F0BEFBD5
:1030600008B9059808B9012000E0002050B900BF58
:10307000502080F31188BFF34F8FBFF36F8F00BFD5
:1030800000BFFEE700BF02F020FBA76BF7B131469F
:103090002046FFF7A5FF781EA063206908B901202C
:1030A00000E0002060B904F1100001F082FA38B1AC
:1030B0004FF08050F8490860BFF34F8FBFF36F8F18
:1030C00002F02BFB012006B0BDE8F081059818B98D
:1030D00002F023FB0020F6E7B8F1000F04D101A8AD
:1030E00001F021FB4FF0010802F017FB00F075FD25
:1030F00002F0EBFA94F94400401C01D184F844003A
:1031000094F94500401C01D184F8450002F005FB0C
:1031100005A901A801F00EFBF0B92046FFF73BFD21
:10312000A0B104F12400059901F0D9F92046FFF778
:1031300087FB00F0A4FC0028A5D14FF08050D649B1
:103140000860BFF34F8FBFF36F8F9CE72046FFF7F8
:1031500077FB00F094FC96E72046FFF771FB00F048
:103160008EFC2046FFF717FD00288CD00020AAE730
:103170002DE9F74382B005460E464FF000082C4675
:1031800054B900BF502080F31188BFF34F8FBFF3B5
:103190006F8F00BF00BFFEE70EB9206C08B9012099
:1031A00000E0002050B900BF502080F31188BFF329
:1031B0004F8FBFF36F8F00BF00BFFEE701F00EFB24
:1031C00008B9049808B9012000E0002050B900BFF8
:1031D000502080F31188BFF34F8FBFF36F8F00BF74
:1031E00000BFFEE700BF02F070FAD4F83890B9F1E2
:1031F000000F1ED0E76831462046FFF7F1FEE7607A
:10320000606A08B9012000E0002060B904F12400E0
:1032100001F0CFF938B14FF080509F490860BFF3FB
:103220004F8FBFF36F8F02F078FA012005B0BDE831
:10323000F083049818B902F070FA0020F6E7B8F1AC
:10324000000F04D1684601F06EFA4FF0010802F059
:1032500064FA00F0C2FC02F038FA94F94400401C11
:1032600001D184F8440094F94500401C01D184F850
:10327000450002F052FA04A9684601F05BFAF0B981
:103280002046FFF788FCA0B104F12400049901F066
:1032900026F92046FFF7D4FA00F0F1FB0028A2D16E
:1032A0004FF080507C490860BFF34F8FBFF36F8FA2
:1032B00099E72046FFF7C4FA00F0E1FB93E72046C8
:1032C000FFF7BEFA00F0DBFB2046FFF764FC0028A6
:1032D00089D00020AAE72DE9F05F06468946174607
:1032E000344654B900BF502080F31188BFF34F8F8C
:1032F000BFF36F8F00BF00BFFEE7B9F1000F01D130
:10330000206C08B9012000E0002050B900BF502017
:1033100080F31188BFF34F8FBFF36F8F00BF00BFE3
:10332000FEE702F02EFA00BF5021EFF3118081F387
:103330001188BFF34F8FBFF36F8F00BF0546D4F8DE
:1033400038A0BAF1000F22D094F944B04946204683
:10335000FFF746FEAAF10100A0631BF101000ED1A8
:10336000206908B9012000E0002068B904F11000CC
:1033700001F01FF940B13FB10120386004E00BF1CA
:10338000010040B284F844004FF0010801E04FF022
:10339000000800BF85F3118800BF4046BDE8F09FDC
:1033A0002DE9F04706468846344654B900BF502000
:1033B00080F31188BFF34F8FBFF36F8F00BF00BF43
:1033C000FEE7B8F1000F01D1206C08B9012000E040
:1033D000002050B900BF502080F31188BFF34F8FF9
:1033E000BFF36F8F00BF00BFFEE7206C08B1012064
:1033F00000E0002050B900BF502080F31188BFF3D7
:103400004F8FBFF36F8F00BF00BFFEE702F0B9F927
:1034100000BF5021EFF3118081F31188BFF34F8F6C
:10342000BFF36F8F00BF0546A06B48B1D4F80C9076
:1034300041462046FFF7D4FDC4F80C90012700E078
:10344000002700BF85F3118800BF3846BDE8F0872C
:1034500070B5044654B900BF502080F31188BFF303
:103460004F8FBFF36F8F00BF00BFFEE702F02DF953
:10347000A56B02F052F9284670BD70B5044625468A
:1034800065B900BF502080F31188BFF34F8FBFF3A1
:103490006F8F00BF00BFFEE704ED00E002F015F9FA
:1034A000D5E90E10461A02F038F9304670BD0146D3
:1034B00051B900BF502282F31188BFF34F8FBFF381
:1034C0006F8F00BF00BFFEE7886B7047014600208A
:1034D0000EE0514A02EBC00252688A4207D1002234
:1034E0004D4B43F8302003EBC0035A6002E0401C10
:1034F0000828EED300BF704770B50446254655B97D
:1035000000BF502080F31188BFF34F8FBFF36F8F40
:1035100000BF00BFFEE72846FFF7D8FF284602F0AD
:103520006DFA70BD0146886C704781647047014632
:1035300091F84C007047014651B900BF502282F308
:103540001188BFF34F8FBFF36F8F00BF00BFFEE73F
:103550008A6B0AB9012000E000207047014651B98A
:1035600000BF502282F31188BFF34F8FBFF36F8FDC
:1035700000BF00BFFEE78A6BCB6B9A4201D10120EE
:1035800000E000207047024600200BE0224B53F879
:10359000303033B9204B43F8301003EBC0035A608E
:1035A00002E0401C0828F1D300BF7047024600200B
:1035B00000210AE0184B03EBC1035B68934203D17F
:1035C000154B53F8310002E0491C0829F2D300BF23
:1035D00070472DE9F04105460E4617462C4602F08D
:1035E00074F894F94400401C01D184F8440094F923
:1035F0004500401C01D184F8450002F08EF8A06B14
:1036000028B93A46314604F1240000F0B4FF2046C0
:10361000FFF716F9BDE8F0817C01002010B5002409
:1036200007E004EB8401FC4A02EB8100FFF734F869
:10363000641C052CF5D3F948FFF72EF8F848FFF77E
:103640002BF8F848FFF728F8F748FFF725F8F74870
:10365000FFF722F8F148F6490860F148F54908609B
:1036600010BD10B5044602F030F8F3480068401C65
:10367000F1490860F148006840B9F0480460084624
:10368000006801280DD1FFF7C9FF0AE0EC48006887
:1036900038B9EA480068C06AE16A884201D8E74858
:1036A0000460E8480068401CE64908600846006875
:1036B000206494F82C1001208840E34909680843ED
:1036C000E1490860E16A01EB8101D34A02EB810024
:1036D000211DFEF7F1FF02F020F8D948006868B11B
:1036E000D6480068C06AE16A884207D24FF080502D
:1036F000D6490860BFF34F8FBFF36F8F10BD2DE920
:10370000F05F82460F4690469B460A9E0C9C4FEA0D
:103710008801A522206B02F0DDF9A8F10100216BE0
:1037200001EB800929F0070919F0070F01D10120E9
:1037300000E0002050B900BF502080F31188BFF393
:103740004F8FBFF36F8F00BF00BFFEE7002507E07C
:10375000795D04F134004155785D00B902E06D1CDB
:103760000A2DF5D300BF00213D200155052E00D3C1
:103770000426E662A6640020E064201DFEF799FF9F
:1037800004F11800FEF795FF2461C6F10500A06161
:1037900064620020206584F854005A465146484629
:1037A00001F0B4FE20600B9808B10B980460BDE8EE
:1037B000F09F2DE9FF4F85B0804689461746DDE929
:1037C00012ABB80002F087F8064656B1582002F056
:1037D00082F804460CB1266304E0304602F00EF98C
:1037E00000E000247CB10020CDE900ABCDE902402F
:1037F0003A4649464046089BFFF781FF2046FFF7BF
:1038000030FF012501E04FF0FF35284609B0BDE843
:10381000F08F87490968096809B9012100E0002192
:1038200021B14FF0FF318A4A116006E080490968F2
:10383000C968C868864A41681160704710B5044677
:10384000206B02F0DBF8204602F0D8F810BD70B50E
:10385000054601F03AFF15B97848006800E02846AF
:103860000446201DFEF74EFF78B9E06A00EB8000A9
:10387000694951F8200040B994F82C100120884083
:1038800071490968814370480160A06A18B104F168
:103890001800FEF737FF6B480068401C6949086054
:1038A00066480068844209D1211D5F48FEF704FF85
:1038B00068480068401C6749086009E05E48006885
:1038C000401E5D4908602046FFF7B8FFFFF7A1FFE3
:1038D00001F023FF5A480068E8B158480068844264
:1038E00019D15D48006808B9012000E0002050B9F6
:1038F00000BF502080F31188BFF34F8FBFF36F8F4D
:1039000000BF00BFFEE74FF0805050490860BFF392
:103910004F8FBFF36F8F70BD2DE9F0414FF000085E
:103920004D480068002876D14C480068451C4B483B
:10393000056015BB3E480068006808B9012000E03A
:10394000002050B900BF502080F31188BFF34F8F83
:10395000BFF36F8F00BF00BFFEE7354807683548EB
:10396000006833490860334807603D480068401CE0
:103970003B490860FFF74DFF00BF354800688542AE
:103980003CD300BF2A480068006808B9012000E065
:10399000002020B14FF0FF302D4908602DE0244871
:1039A0000068C068C4686668B54202D228480660EC
:1039B00023E0201DFEF7A6FEA06A18B104F118004E
:1039C000FEF7A0FE94F82C10012088401E490968DB
:1039D00008431D490860E16A01EB81010E4A02EBD0
:1039E0008100211DFEF768FE1449E06A0968C96A72
:1039F0008842C7D34FF00108C4E700BF0F480068F2
:103A0000C06A00EB8000044951F82000012801D968
:103A10004FF001082BE025E0BC010020200200202F
:103A200034020020480200205C02002070020020C6
:103A30009C000020A00000207000002068000020F2
:103A40007C0000208C0000207800002004ED00E0C5
:103A5000900000206C0000209800002074000020DE
:103A600088000020FE480068401CFD490860FD48B1
:103A7000006808B14FF001084046BDE8F08170B51C
:103A800000240026F848006850B900BF502080F399
:103A90001188BFF34F8FBFF36F8F00BF00BFFEE7EA
:103AA00001F013FEF0480068401EEF490860084628
:103AB000006800284FD1ED48006800284BD024E072
:103AC000EB48C068C46804F11800FEF71BFE201D17
:103AD000FEF718FE94F82C1001208840E54909688B
:103AE0000843E4490860E16A01EB8101E24A02EB24
:103AF0008100211DFEF7E0FDE049E06A0968C96A1E
:103B0000884202D30120D7490860D948006808B923
:103B1000012000E000200028D2D00CB1FFF779FE90
:103B2000CF48056865B100BFFFF7F6FE10B1012070
:103B3000CC4908606D1E002DF6D10020C8490860F0
:103B4000C848006838B101263007CD490860BFF386
:103B50004F8FBFF36F8F01F0E0FD304670BD2DE950
:103B6000F04105460E46C7480768C4480068001D76
:103B7000FEF7C8FD50B9C148006890F82C1001202C
:103B80008840BC4909688143BA480160681C07D174
:103B900036B1BA480168091DBB48FEF78DFD1AE031
:103BA0007C19B64800684460BC4207D2B34801683B
:103BB000091DB6480068FEF78BFD0CE0AF480168B0
:103BC000091DB3480068FEF783FDB24800688442CF
:103BD00001D2B0480460BDE8F081A3480068401CF1
:103BE000A149086070472DE9F04704460F464FF0A1
:103BF000000954B900BF502080F31188BFF34F8FE4
:103C0000BFF36F8F00BF00BFFEE70FB1012000E0E0
:103C1000002050B900BF502080F31188BFF34F8FB0
:103C2000BFF36F8F00BF00BFFEE78F48006808B981
:103C3000012000E0002050B900BF502080F311881F
:103C4000BFF34F8FBFF36F8F00BF00BFFEE7FFF7DB
:103C5000C4FF8C4806682068C5192068B04207D99F
:103C60002068A8420BD9B54209D94FF0010906E0F6
:103C70002068A84201D8B54201D94FF0010925605A
:103C8000B9F1000F03D0A81B0021FFF768FFFFF771
:103C9000F6FE8046B8F1000F07D14FF0805078490A
:103CA0000860BFF34F8FBFF36F8FBDE8F08770B52B
:103CB00004460025D4B16C48006808B9012000E032
:103CC000002050B900BF502080F31188BFF34F8F00
:103CD000BFF36F8F00BF00BFFEE7FFF77EFF00213D
:103CE0002046FFF73CFFFFF7CAFE05463DB94FF0FF
:103CF000805063490860BFF34F8FBFF36F8F70BD73
:103D00002DE9F04107463E4656B900BF502080F3EA
:103D10001188BFF34F8FBFF36F8F00BF00BFFEE767
:103D200056480068864201D100241EE001F0CDFC17
:103D3000756901F0F2FC56480068854203D053488B
:103D40000068854201D102240FE04F48854205D129
:103D5000B06A08B9032408E0022406E04E48854210
:103D600000D00DB9042400E001242046BDE8F08114
:103D700070B5044601F0A9FC14B94048006800E0A1
:103D800020460646F56A01F0C8FC284670BD2DE9BC
:103D9000F041054601F0F5FC00BF5021EFF3118022
:103DA00081F31188BFF34F8FBFF36F8F00BF0446BD
:103DB00015B93248006800E028460746FE6A00BF91
:103DC00084F3118800BF3046BDE8F0812DE9F0474B
:103DD00080460D464FF00009052D01D2012000E07C
:103DE000002050B900BF502080F31188BFF34F8FDF
:103DF000BFF36F8F00BF00BFFEE7052D00D3042582
:103E000001F063FCB8F1000F02D11C48006800E02B
:103E100040460446A66CAE4275D0B5420BD9174851
:103E2000006884420DD015480068C06AA84208D8CE
:103E30004FF0010905E011480068844201D14FF0BC
:103E40000109E76AE16AA06C884200D1E562A564D5
:103E5000A06910F0004F02D1C5F10500A0611DE07E
:103E600080000020840000209800002070000020C6
:103E70004802002078000020BC01002068000020DB
:103E800004ED00E07400002070020020A00000207B
:103E90009C000020900000205C02002007EB8701BE
:103EA000FC4A02EB81016069884201D1012000E0F7
:103EB0000020E0B1201DFEF725FC30B90120B840FC
:103EC000F54909688143F448016094F82C100120F9
:103ED0008840F14909680843EF490860E16A01EB4D
:103EE0008101EC4A02EB8100211DFEF7E5FBB9F1EF
:103EF000000F07D04FF08050E8490860BFF34F8FA4
:103F0000BFF36F8F00BF01F008FCBDE8F087E44805
:103F1000006818B10120E349086032E00020E1495F
:103F20000860DD480068B0FA80F0C0F11F0101EBC5
:103F30008100D84A52F8200008B1012000E000209A
:103F400050B900BF502080F31188BFF34F8FBFF3EB
:103F50006F8F00BF00BFFEE701EB8102CD4B03EB8B
:103F6000820042685268426000F10802436893424E
:103F700002D14268526842604268D268CA4B1A60F5
:103F800000BF704770B5054601F09FFB15B9C648E4
:103F9000006800E028460446201DFEF7B3FB78B910
:103FA000E06A00EB8000BB4951F8200040B994F86A
:103FB0002C1001208840B84909688143B648016047
:103FC000A06A18B104F11800FEF79CFB211DB74848
:103FD000FEF772FB94F85400012802D1002084F807
:103FE000540001F09AFBB248006828B101F06DFB63
:103FF000FFF70FFC01F091FBAB480068844229D128
:10400000AB480068D0B1A648006808B9012000E0BC
:10401000002050B900BF502080F31188BFF34F8FAC
:10402000BFF36F8F00BF00BFFEE74FF080509B498A
:104030000860BFF34F8FBFF36F8F0BE09B480068A2
:104040009C490968884203D100209749086001E033
:10405000FFF75DFF70BD10B502460020114652B952
:1040600000BF502383F31188BFF34F8FBFF36F8FCF
:1040700000BF00BFFEE78D4C4B69A34201D1012375
:1040800000E0002373B18C4C8B6AA34201D1012361
:1040900000E0002333B98B6A0BB9012300E0002351
:1040A00003B1012010BD70B505462C4655B900BFBF
:1040B000502080F31188BFF34F8FBFF36F8F00BF85
:1040C00000BFFEE774B37848006884422AD001F04C
:1040D000FCFA2046FFF7BFFF10B3201DFEF712FBCE
:1040E00094F82C10012088406B49096808436A49FC
:1040F0000860E16A01EB8101664A02EB8100211D43
:10410000FEF7DAFA6849E06A0968C96A884207D3A3
:104110004FF0805061490860BFF34F8FBFF36F8F3E
:1041200001F0FBFA70BD2DE9F04106460027344648
:1041300056B900BF502080F31188BFF34F8FBFF3F3
:104140006F8F00BF00BFFEE701F01BFB00BF5021D7
:10415000EFF3118081F31188BFF34F8FBFF36F8F9F
:1041600000BF05462046FFF776FF20B34C480068A5
:10417000E0B94D49E06A0968C96A884200D301275D
:10418000201DFEF7BFFA94F82C1001208840424908
:104190000968084340490860E16A01EB81013D4A32
:1041A00002EB8100211DFEF787FA04E004F11801FB
:1041B0004148FEF781FA00BF85F3118800BF3846F9
:1041C000BDE8F08110B516E001F07FFA3B48C06809
:1041D000C468201DFEF796FA36480068401E35492F
:1041E000086037480068401E3549086001F095FABC
:1041F0002046FFF723FB324800680028E4D110BDB9
:1042000000BFFFF7DFFF234800680128F9D94FF00E
:10421000805022490860BFF34F8FBFF36F8FF0E7E4
:104220001CB5284800210B468222CDE9001026A1AA
:104230002748FFF7BEFA0446012C02D101F039F8F5
:104240000446012C15D100BF502080F31188BFF324
:104250004F8FBFF36F8F00BF4FF0FF301D490860D5
:1042600001201349086000201B49086001F073F920
:1042700035E0601C01D0012000E0002070BB00BFD1
:10428000502080F31188BFF34F8FBFF36F8F00BFB3
:1042900000BFFEE7BC0100207800002004ED00E034
:1042A0009800002084000020680000207002002098
:1042B0007C00002070000020480200205C020020EA
:1042C0006C0000209400002049444C450000000090
:1042D000014200089000002074000020FFE71CBD90
:1042E00010B500BF502080F31188BFF34F8FBFF38C
:1042F0006F8F00BF0020F949086001F0D1F910BDAF
:10430000F7490868704770B501F03BFA0025F4489A
:104310000468204670BDF34800687047014611B933
:10432000F148006800E00846024652B900BF50203C
:1043300080F31188BFF34F8FBFF36F8F00BF00BFB3
:10434000FEE702F1340070470246002101E0521CF2
:10435000491C1078A528FAD0890888B270472DE941
:10436000F04107460C4690461E4617B9DE480068E5
:1043700000E038460546256005F134006060E86AD3
:104380002061286BE061286CA060A86C606100204F
:10439000A061052E12D0D4480068854202D10020C9
:1043A00020730FE02673032E0CD1FFF716FCA86ACA
:1043B00008B102202073FFF762FB03E02846FFF7F5
:1043C0009FFC2073B8F1000F04D0286BFFF7BCFFEF
:1043D000208401E000202084BDE8F0812DE9F04731
:1043E00007460C4690460026206848B320464168A0
:1043F0004968416000F1080142688A4202D141687F
:10440000496841604168D1F80C9000BF204641687E
:104410004968416000F1080142688A4202D141685E
:10442000496841604168CD6806EBC60007EB800132
:10443000434601222846FFF792FF761C4D45E5D101
:104440003046BDE8F0872DE9F0410546884616461E
:1044500000240527FFF7C1FBA2480068804539D337
:1044600000BF7F1E07EB8702A04B03EB820104EB2A
:10447000C40205EB82000122FFF7B0FF0444002FC5
:10448000EFD104EBC40105EB8100022298490968D1
:10449000FFF7A4FF044404EBC40105EB81000222F2
:1044A00094490968FFF79AFF044404EBC40105EB43
:1044B000810004229049FFF791FF044404EBC401FA
:1044C00005EB810003228D49FFF788FF04440EB1FC
:1044D00000203060FFF7D3FA2046BDE8F08170B5C8
:1044E00004460D4654B900BF502080F31188BFF335
:1044F0004F8FBFF36F8F00BF00BFFEE77A480168A0
:1045000018312046FEF7E4F801212846FFF727FB83
:1045100070BD70B504460D46164654B900BF502014
:1045200080F31188BFF34F8FBFF36F8F00BF00BFC1
:10453000FEE77348006808B1012000E0002050B990
:1045400000BF502080F31188BFF34F8FBFF36F8FF0
:1045500000BF00BFFEE745F000406349096888617D
:104560006148016818312046FEF7A6F8012130465F
:10457000FFF7F5FA70BD70B505460E46144655B9FD
:1045800000BF502080F31188BFF34F8FBFF36F8FB0
:1045900000BF00BFFEE75448016818312846FEF707
:1045A0008BF80CB14FF0FF3621463046FFF7D7FAB3
:1045B00070BD70B50646F068C46854B900BF50209D
:1045C00080F31188BFF34F8FBFF36F8F00BF00BF21
:1045D000FEE704F11800FEF795F849480068A8B90D
:1045E000201DFEF78FF894F82C10012088404549D3
:1045F0000968084343490860E16A01EB81013B4ACD
:1046000002EB8100211DFEF757F804E004F11801C8
:104610003D48FEF751F83449E06A0968C96A8842A2
:1046200004D9012501203949086000E00025284609
:1046300070BD70B505460E463148006808B10120CE
:1046400000E0002050B900BF502080F31188BFF374
:104650004F8FBFF36F8F00BF00BFFEE746F00040F3
:104660002860EC6854B900BF502080F31188BFF374
:104670004F8FBFF36F8F00BF00BFFEE72846FEF7E6
:1046800041F8201DFEF73EF894F82C1001208840D8
:104690001C49096808431B490860E16A01EB810174
:1046A000124A02EB8100211DFEF706F80E49E06A6E
:1046B0000968C96A884202D901201449086070BD9E
:1046C00010B5044624BB00BF502080F31188BFF30F
:1046D0004F8FBFF36F8F00BF00BFFEE77C0000204D
:1046E000740000207000002068000020BC01002041
:1046F0009C000020A00000205C020020700200202E
:10470000980000207800002048020020840000204B
:1047100000F0DBFFFE4800682060FE480068606033
:1047200000F0FBFF10BDFA4909680160F94909680A
:104730004160704770B505460C4655B900BF502022
:1047400080F31188BFF34F8FBFF36F8F00BF00BF9F
:10475000FEE754B900BF502080F31188BFF34F8F9C
:10476000BFF36F8F00BF00BFFEE700F0AEFFE94868
:1047700002686868131A2068401C01D1002617E0FF
:10478000E34928680968884204D06868904201D8E3
:1047900001260DE02068984207D92068C01A2060E1
:1047A0002846FFF7C0FF002602E000202060012617
:1047B00000F0B3FF304670BD0120D7490860704754
:1047C000014611B10A46506C00E00020704708B164
:1047D000024651647047D14908687047D04909685A
:1047E00009B9012005E0CF49096809B9022000E0B4
:1047F0000020704770B505462C460026002D54D089
:10480000C649E06A0968C96A884247D2A06910F0BF
:10481000004F05D1C1480068C06AC0F10500A06121
:10482000E16A01EB8101C04A02EB810160698842C3
:1048300001D1012000E0002050B3201DFDF762FFF0
:1048400078B9E06A00EB8000B74951F8200040B920
:1048500094F82C1001208840B44909688143B3487A
:104860000160AE480068C06AE06294F82C10012034
:104870008840AE4909680843AC490860E16A01EB29
:104880008101A94A02EB8100211DFDF715FF03E01C
:10489000A2480068C06AE062012606E09F49A06C59
:1048A0000968C96A884200D20126304670BD70B5D9
:1048B00005462C460026002D55D0984800688442B5
:1048C00001D1012000E0002050B900BF502080F34A
:1048D0001188BFF34F8FBFF36F8F00BF00BFFEE79C
:1048E000E06C50B900BF502080F31188BFF34F8FA8
:1048F000BFF36F8F00BF00BFFEE7E06C401EE064B7
:10490000A16CE06A88422ED0E06C60BB201DFDF7F0
:10491000F9FE78B9E06A00EB8000834951F8200085
:1049200040B994F82C1001208840804909688143DF
:104930007E480160A06CE062E06AC0F10500A06101
:1049400094F82C1001208840784909680843774979
:104950000860E16A01EB8101734A02EB8100211DCD
:10496000FDF7AAFE0126304670BD2DE9F047064648
:104970000F4634464FF00109002E67D0E06C50B965
:1049800000BF502080F31188BFF34F8FBFF36F8FAC
:1049900000BF00BFFEE7A06CB84201D23D4600E078
:1049A000A56CE06AA84251D0E06C01284ED15B486A
:1049B0000068844201D0012000E0002050B900BF0F
:1049C000502080F31188BFF34F8FBFF36F8F00BF6C
:1049D00000BFFEE7D4F82C80E562A06910F0004F1C
:1049E00002D1C5F10500A06108EB88014E4A02EB37
:1049F00081016069884201D1012000E0002028B3D4
:104A0000201DFDF77FFE78B9E06A00EB8000464983
:104A100051F8200040B994F82C10012088404349F7
:104A2000096881434148016094F82C1001208840B6
:104A30003E49096808433D490860E16A01EB81018C
:104A4000394A02EB8100211DFDF736FEBDE8F087F3
:104A500032490968886931490968C96AC1F10501A3
:104A60002E4A1268916170472C48006830B12B497A
:104A7000096801F14C00C96C491C016027480068B5
:104A8000704770B506460D4600F01FFE23480068CB
:104A9000006D88B901202149096881F854005DB191
:104AA00001212846FFF75BF84FF08050204908604D
:104AB000BFF34F8FBFF36F8F00F02FFE00F005FEA6
:104AC00016480068046D4CB126B1002013490968EE
:104AD000086503E0601E11490968086500200F4958
:104AE000096881F8540000F018FE204670BD2DE9D9
:104AF000F0410746884614461D4600F0E6FD07488B
:104B0000006890F8540002282BD00449096811E08D
:104B1000880000207400002084000020680000202D
:104B20007C00002098000020BC01002078000020BC
:104B300004ED00E001F15000096DB943016001206E
:104B4000E349096881F854005DB101212846FFF767
:104B500006F84FF08050DF490860BFF34F8FBFF376
:104B60006F8F00F0DAFD00F0B0FD1CB1D84800688E
:104B7000006D2060D648006890F85400022801D0EB
:104B8000002608E0D249096801F15000096D21EAC8
:104B90000801016001260020CD49096881F8540010
:104BA00000F0BBFD3046BDE8F0812DE9F047064638
:104BB0000D46174698464FF0010A56B900BF5020DF
:104BC00080F31188BFF34F8FBFF36F8F00BF00BF1B
:104BD000FEE7344600F079FDB8F1000F02D0206DF9
:104BE000C8F8000094F85490022084F85400052F6F
:104BF00017D2DFE807F01503070B0D00206D2843DF
:104C000020650EE0206D401C20650AE0256508E067
:104C1000B9F1020F01D0256501E04FF0000A00E074
:104C200000BF00BFB9F1010F33D1201DFDF76AFDB0
:104C300094F82C1001208840A74909680843A64928
:104C40000860E16A01EB8101A44A02EB8100211DA9
:104C5000FDF732FDA06A08B9012000E0002050B93C
:104C600000BF502080F31188BFF34F8FBFF36F8FC9
:104C700000BF00BFFEE79649E06A0968C96A88423A
:104C800007D94FF0805093490860BFF34F8FBFF3AF
:104C90006F8F00F042FD5046BDE8F0872DE9F84FD8
:104CA00007460E4690469946DDF828B00120009050
:104CB00057B900BF502080F31188BFF34F8FBFF367
:104CC0006F8F00BF00BFFEE700F05BFD3C4600BFFA
:104CD0005021EFF3118081F31188BFF34F8FBFF3A1
:104CE0006F8F00BF0546B9F1000F02D0206DC9F8E3
:104CF000000094F854A0022084F85400B8F1050F85
:104D000017D2DFE808F01503070B0D00206D3043C4
:104D100020650EE0206D401C20650AE0266508E055
:104D2000BAF1020F01D0266501E00020009000E0FA
:104D300000BF00BFBAF1010F3ED1A06A08B901203F
:104D400000E0002050B900BF502080F31188BFF36D
:104D50004F8FBFF36F8F00BF00BFFEE76048006852
:104D6000A8B9201DFDF7CEFC94F82C100120884036
:104D700059490968084358490860E16A01EB810113
:104D8000564A02EB8100211DFDF796FC04E004F178
:104D900018015448FDF790FC4D49E06A0968C96A5A
:104DA000884209D9BBF1000F03D00120CBF80000E5
:104DB00002E001204C49086000BF85F3118800BF64
:104DC0000098BDE8F88F2DE9F04105460F4655B92A
:104DD00000BF502080F31188BFF34F8FBFF36F8F58
:104DE00000BF00BFFEE700F0CCFC2C4600BF502106
:104DF000EFF3118081F31188BFF34F8FBFF36F8FF3
:104E000000BF064694F85480022084F85400206DB8
:104E1000401C2065B8F1010F3BD1A06A08B9012000
:104E200000E0002050B900BF502080F31188BFF38C
:104E30004F8FBFF36F8F00BF00BFFEE728480068A9
:104E4000A8B9201DFDF75EFC94F82C1001208840C5
:104E500021490968084320490860E16A01EB8101A2
:104E60001E4A02EB8100211DFDF726FC04E004F13F
:104E700018011C48FDF720FC1549E06A0968C96A59
:104E8000884206D917B10120386002E00120164996
:104E9000086000BF86F3118800BFBDE8F08170B5DF
:104EA000054615B90A48006800E02846064600F0A5
:104EB0000CFC96F85400022804D1002086F8540017
:104EC000012400E0002400F028FC204670BD000012
:104ED0006800002004ED00E078000020BC01002004
:104EE0009800002048020020840000202DE9F041B5
:104EF00004460D4616461F464FF0000865602461C3
:104F0000B5420CD8F01BA169884202D34FF00108CA
:104F100011E0211DF7480068FDF7DAFB0BE0BE4207
:104F200004D2BD4202D34FF0010804E0211DF24833
:104F30000068FDF7CDFB4046BDE8F0812DE9FE435A
:104F400004460D4616461F46DDF828804FF000093E
:104F500054B900BF502080F31188BFF34F8FBFF3C7
:104F60006F8F00BF00BFFEE7E448006810B30095F4
:104F700001960294062D15DAFFF730FC022808D1BD
:104F8000002342466946DD480068FDF7E5FC81469E
:104F900010E000231A466946D8480068FDF7DCFC9B
:104FA000814607E000233A466946D4480068FDF789
:104FB0002BFF81464846BDE8FE832DE9F84332E0E9
:104FC000CD480068C0680568CB480068C068C46800
:104FD000201DFDF797FB2046616A8847E06901289C
:104FE00021D1A0694619AE4207D966602461211D0E
:104FF000C1480068FDF76CFB15E0002003462A4617
:10500000014600902046FFF799FF074657B900BFB9
:10501000502080F31188BFF34F8FBFF36F8F00BF15
:1050200000BFFEE700BFB4480068006808B901206F
:1050300000E000200028C3D0AF48D0F80080AD4881
:105040000068AD490860AB48C0F80080BDE8F8834F
:1050500070B50446FFF754F90546A9480068854233
:1050600004D2FFF7AAFF0120206001E000202060A9
:10507000A3480560284670BD70B586B06AE0039805
:10508000002867DB059C606908B9012000E000206A
:1050900010B9201DFDF736FB02A8FFF7D9FF054622
:1050A00003980A2854D2DFE800F009050731334F8E
:1050B0000608323400BF00BF00BF00BF0498A269D9
:1050C000811803462A462046FFF710FFE8B1204624
:1050D000616A8847E069012817D100200090049890
:1050E000A1694218002319462046FFF727FF06460C
:1050F00056B900BF502080F31188BFF34F8FBFF324
:105100006F8F00BF00BFFEE700BF22E000BF20E0BE
:1051100000BF0498A061A06908B1012000E0002050
:1051200050B900BF502080F31188BFF34F8FBFF3F9
:105130006F8F00BF00BFFEE7A06941192B462A46CA
:105140002046FFF7D3FE04E0204600F057FC00E0C5
:1051500000BF00BF002203A968480068FDF755FFA3
:1051600000288CD106B070BDF8B505460F466248E0
:105170000068C068C468201DFDF7C4FAE069012812
:105180001DD1A06941192B463A462046FFF7AEFED5
:10519000A8B1002003462A46014600902046FFF7AA
:1051A000CDFE064656B900BF502080F31188BFF3EC
:1051B0004F8FBFF36F8F00BF00BFFEE700BF2046D9
:1051C000616A8847F8BDF8B505460C46FEF705FD4F
:1051D0006846FFF73DFF0646009820BB44B9B5423C
:1051E00006D8FEF74CFC31462846FFF7BDFF1CE011
:1051F0003CB140480068006808B9012000E0002088
:105200000446A91B22463D480068FEF7E2F9FEF776
:1052100036FC50B94FF080503A490860BFF34F8FC9
:10522000BFF36F8F01E0FEF72AFCF8BD0146324A5A
:10523000126812680AB9012200E000220A600A68B6
:1052400022B92D4A1268D268106800E00020704729
:1052500008B500BF6846FFF7E9FF044620460099FD
:10526000FFF7B1FFFFF708FFF4E710B500F02DFAE4
:1052700022480068D0B92448FDF70EFA2348FDF70C
:105280000BFA21481C49086020481A49086000228E
:105290000C210A20FDF7A8FA1849086008460068A2
:1052A00020B11BA115480068FEF76DF900F035FA32
:1052B00010BD1CB50024FFF7D8FF1048006858B196
:1052C0001548022100234FF48272CDE9001013A18A
:1052D0001448FEF76EFA044654B900BF502080F31C
:1052E0001188BFF34F8FBFF36F8F00BF00BFFEE782
:1052F00020461CBDB4000020B0000020A400002007
:10530000AC00002004ED00E08402002098020020A0
:10531000546D725100000000A8000020546D7220EE
:1053200053766300515200082DE9F04706460D46BA
:1053300017469846DDE908940DB1012000E00020F1
:1053400050B900BF502080F31188BFF34F8FBFF3D7
:105350006F8F00BF00BFFEE75CB1FFF786FF2660DE
:10536000A561E761C4F82080C4F82490201DFDF7F2
:10537000A0F9BDE8F0872DE9FC4705460E46174623
:105380009846DDF828902C2000F0A5FA04463CB1A0
:1053900043463A4631462846CDE90094FFF7C4FF1C
:1053A0002046BDE8FC874948006808B1012000E0BC
:1053B000002050B900BF502080F31188BFF34F8FF9
:1053C000BFF36F8F00BF00BFFEE740480068704723
:1053D00001460A4651B900BF502080F31188BFF33F
:1053E0004F8FBFF36F8F00BF00BFFEE7906970471C
:1053F00010B501460A4651B900BF502383F3118806
:10540000BFF34F8FBFF36F8F00BF00BFFEE7506841
:1054100010BD01460A4651B900BF502080F31188E3
:10542000BFF34F8FBFF36F8F00BF00BFFEE7106861
:10543000704770B50446264654B900BF502080F32B
:105440001188BFF34F8FBFF36F8F00BF00BFFEE720
:1054500000F03BF9706908B9012000E0002080F0FD
:10546000010500F05AF9284670BD70B5044625467E
:1054700054B900BF502080F31188BFF34F8FBFF3A2
:105480006F8F00BF00BFFEE700F01FF92E6A00F02B
:1054900044F9304670BD70B504460D46264654B9F1
:1054A00000BF502080F31188BFF34F8FBFF36F8F81
:1054B00000BF00BFFEE700F008F9356200F02DF9EB
:1054C00070BD0146886A704781627047A80000205D
:1054D000C7480068401C01D1012000E0002050B9FD
:1054E00000BF502080F31188BFF34F8FBFF36F8F41
:1054F00000BF00BFFEE700BF502080F31188BFF35C
:105500004F8FBFF36F8F00BF00BFFEE7001F4FF04C
:1055100080730360001F21F001030360001FB54B7F
:10552000036014380260001F6FF00203036020382C
:10553000704700204FF0E02108618861AE480068A4
:105540004FF47A71B0FBF1F0401E4FF0E02148615A
:105550000720086170471CB5A8480068A849884220
:1055600001D0012000E0002050B900BF502080F39E
:105570001188BFF34F8FBFF36F8F00BF00BFFEE7EF
:105580009E4800689E49491E884201D0012000E0E3
:10559000002050B900BF502080F31188BFF34F8F17
:1055A000BFF36F8F00BF00BFFEE796490846007843
:1055B0000190FF200A4610700846007800909DF880
:1055C000000000F0F0009DF80020904201D1012081
:1055D00000E0002050B900BF502080F31188BFF3D5
:1055E0004F8FBFF36F8F00BF00BFFEE79DF8000035
:1055F00000F05000844A10700720844A106009E0CF
:1056000082480068401E814A10609DF800004006F4
:10561000000E00909DF8000000F080008028EFD080
:105620007A480068C0F10700042801D1012000E099
:10563000002050B900BF502080F31188BFF34F8F76
:10564000BFF36F8F00BF00BFFEE770480068000225
:105650006E4A10601046008800F4E0601060694AED
:105660000198107065482030006840F4700063496C
:10567000203108600846006840F070400860FFF77D
:1056800058FF00205A490860FAF7ACFD60480068EE
:1056900040F040405E490860FAF790FD00201CBDD4
:1056A00053480068B0F57A7F01D1012000E0002066
:1056B00050B900BF502080F31188BFF34F8FBFF364
:1056C0006F8F00BF00BFFEE7704700BF502080F320
:1056D0001188BFF34F8FBFF36F8F00BF444800683E
:1056E000401C4349086008460068012814D143481B
:1056F000001D006810F0FF0F01D1012000E0002024
:1057000050B900BF502080F31188BFF34F8FBFF313
:105710006F8F00BF00BFFEE770473548006850B983
:1057200000BF502080F31188BFF34F8FBFF36F8FFE
:1057300000BF00BFFEE72E480068401E2C490860ED
:105740000846006820B9002080F3118800BF00BF20
:10575000704710B500BF502080F31188BFF34F8F02
:10576000BFF36F8F00BFFEF7D7F820B14FF0805026
:105770002249091D086000BF002080F3118800BF86
:1057800010BD70B5FAF766FD0446102C17D34FF024
:10579000E020204490F8F0531B480078854201DB5C
:1057A000012000E0002050B900BF502080F3118894
:1057B000BFF34F8FBFF36F8F00BF00BFFEE70F48EF
:1057C0000C30006800F4E06010490968884201D894
:1057D000012000E0002050B900BF502080F3118864
:1057E000BFF34F8FBFF36F8F00BF00BFFEE770BDE9
:1057F000B8000020D15400085400002000ED00E063
:1058000071C20F4100E400E0BC000020C000002095
:1058100034EF00E010B501469F4800E000680368DF
:105820008B42FBD30246436813448B4204D1436846
:105830004C682344436001460A464B68134404689D
:10584000A34211D1954C03682468A34208D04B6849
:105850000468646823444B6003681B680B6005E0C0
:105860008E4B1B680B6001E003680B60884200D020
:10587000016010BD30B54FF49633894810F0070F22
:1058800005D0C01D20F00700854C041B1B1B0246E1
:10589000814C22600024804D6C60D018083820F0C4
:1058A00007007E4C206000247C4D2D686C607B4D91
:1058B0002D682C601146441A4C60784C24680C60AA
:1058C000784D4C682C60784D4C682C604FF000444B
:1058D000764D2C6030BD2DE9F04104464FF00008B4
:1058E000FEF77BF96D48006808B9FFF7C3FF6F4802
:1058F000006804426BD1D4B1083414F0070F16D0FD
:1059000004F00700C0F10800044414F0070F01D1AF
:10591000012000E0002050B900BF502080F3118822
:10592000BFF34F8FBFF36F8F00BF00BFFEE7002CA8
:105930004DD05D480068844249D8574E30460568CE
:1059400001E02E462D686868A04202D2286800282F
:10595000F7D152480068854239D0306800F1080814
:10596000286830606868001B102819D92F1917F0B3
:10597000070F01D1012000E0002050B900BF5020E6
:1059800080F31188BFF34F8FBFF36F8F00BF00BF4D
:10599000FEE76868001B78606C603846FFF73AFFE6
:1059A000414968680968081A3F4908600846006864
:1059B0003C490968884203D23B480068394908607D
:1059C0003A49686809680843686000202860FEF763
:1059D00056F818F0070F01D1012000E0002050B95F
:1059E00000BF502080F31188BFF34F8FBFF36F8F3C
:1059F00000BF00BFFEE74046BDE8F08170B5064637
:105A00003546002E3FD0083D2C462849606809687D
:105A1000084201D0012000E0002050B900BF502012
:105A200080F31188BFF34F8FBFF36F8F00BF00BFAC
:105A3000FEE7206808B9012000E0002050B900BF4F
:105A4000502080F31188BFF34F8FBFF36F8F00BFDB
:105A500000BFFEE7154960680968084213D0206856
:105A600088B912496068096888436060FEF7B5F834
:105A70000D496068096808440B4908602046FFF733
:105A8000C9FEFDF7FCFF70BD074800687047054878
:105A90000068704770470000D4000020C400002058
:105AA000AC020020CC000020C8000020D000002064
:105AB00040EA01039B0703D009E008C9121F08C090
:105AC000042AFAD203E011F8013B00F8013B521E10
:105AD000F9D27047D2B201E000F8012B491EFBD287
